{
  "_format": "hh-sol-artifact-1",
  "contractName": "Seeker",
  "sourceName": "contracts/Seeker.sol",
  "abi": [
    {
      "inputs": [
        {
          "internalType": "address",
          "name": "_cat",
          "type": "address"
        }
      ],
      "stateMutability": "nonpayable",
      "type": "constructor"
    },
    {
      "inputs": [],
      "name": "caress",
      "outputs": [],
      "stateMutability": "payable",
      "type": "function"
    },
    {
      "stateMutability": "payable",
      "type": "receive"
    }
  ],
  "bytecode": "0x60a034606d57601f61028d38819003918201601f19168301916001600160401b03831184841017607257808492602094604052833981010312606d57516001600160a01b03811690819003606d57608052604051610204908161008982396080518181816020015260f40152f35b600080fd5b634e487b7160e01b600052604160045260246000fdfe60808060405260043610156100d0575b50361561001b57600080fd5b6000807f00000000000000000000000000000000000000000000000000000000000000006001600160a01b031680311561009b57803b15610098578190600460405180948193633ccfd60b60e01b83525af1801561008d5761007957005b610084828092610196565b61008a57005b80fd5b6040513d84823e3d90fd5b50fd5b803b15610098578190600460405180948193624a23cf60e21b83525af1801561008d576100c457005b816100ce91610196565b005b6000803560e01c6301288f3c146100e7575061000f565b8060031936011261008a577f00000000000000000000000000000000000000000000000000000000000000006001600160a01b031691823b1561019257630d0e30db60e41b8152818160048134875af1801561008d57610182575b508181923b1561009857818091600460405180948193633ccfd60b60e01b83525af1801561008d576101715750f35b8161017b91610196565b61008a5780f35b8161018c91610196565b38610142565b5080fd5b90601f8019910116810190811067ffffffffffffffff8211176101b857604052565b634e487b7160e01b600052604160045260246000fdfea26469706673582212209ef71ed6287bec16947c0ccdd5f0c506d7fff790cc26acec145b2615c3fd0cbf64736f6c634300081e0033",
  "linkReferences": {},
  "deployedLinkReferences": {}
}