{
  "_format": "hh-sol-artifact-1",
  "contractName": "Prophet",
  "sourceName": "contracts/Prophet.sol",
  "abi": [
    {
      "inputs": [
        {
          "internalType": "address",
          "name": "cat",
          "type": "address"
        }
      ],
      "name": "caress",
      "outputs": [],
      "stateMutability": "nonpayable",
      "type": "function"
    }
  ],
  "bytecode": "0x608080604052346015576101b1908161001b8239f35b600080fdfe608080604052600436101561001357600080fd5b60003560e01c63c019a54d1461002857600080fd5b346100fe5760203660031901126100fe57600435906001600160a01b03821682036100fe5780602060019201904282524460408201523060601b606082015260548152610076607482610103565b519020161561008157005b60005b600a81106100c1575060008091604051826020820191624a23cf60e21b8352600481526100b2602482610103565b51925af1506100bf61013b565b005b600190600080604051602081019063cde4efa960e01b8252600481526100e8602482610103565b519082875af1506100f761013b565b5001610084565b600080fd5b90601f8019910116810190811067ffffffffffffffff82111761012557604052565b634e487b7160e01b600052604160045260246000fd5b3d15610176573d9067ffffffffffffffff8211610125576040519161016a601f8201601f191660200184610103565b82523d6000602084013e565b60609056fea2646970667358221220914a37ca1d4886fa2f1a7f17e458cab449601c0b15ea36129391defe59200ff064736f6c634300081e0033",
  "linkReferences": {},
  "deployedLinkReferences": {}
}