{"contracts/cats/OverflowCat.sol":{"OverflowCat":{"abi":[{"constant":false,"inputs":[],"name":"caress","outputs":[],"payable":false,"stateMutability":"nonpayable","type":"function"},{"constant":true,"inputs":[],"name":"remember","outputs":[{"name":"","type":"bool"}],"payable":false,"stateMutability":"view","type":"function"},{"constant":false,"inputs":[{"name":"_receivers","type":"address[]"},{"name":"_value","type":"uint256"}],"name":"batchTransfer","outputs":[],"payable":false,"stateMutability":"nonpayable","type":"function"},{"constant":true,"inputs":[{"name":"","type":"address"}],"name":"balance","outputs":[{"name":"","type":"uint256"}],"payable":false,"stateMutability":"view","type":"function"},{"anonymous":false,"inputs":[{"indexed":true,"name":"caretaker","type":"address"},{"indexed":false,"name":"wound","type":"string"}],"name":"Meow","type":"event"}],"evm":{"bytecode":{"linkReferences":{},"object":"608060405234801561001057600080fd5b506102ba806100206000396000f3006080604052600436106100615763ffffffff7c010000000000000000000000000000000000000000000000000000000060003504166301288f3c81146100665780635ac687a81461007d57806383f12fec146100a6578063e3d670d7146100fd575b600080fd5b34801561007257600080fd5b5061007b61013d565b005b34801561008957600080fd5b506100926101b9565b604080519115158252519081900360200190f35b3480156100b257600080fd5b506040805160206004803580820135838102808601850190965280855261007b9536959394602494938501929182918501908490808284375094975050933594506101d59350505050565b34801561010957600080fd5b5061012b73ffffffffffffffffffffffffffffffffffffffff6004351661027c565b60408051918252519081900360200190f35b3360009081526020819052604081205411156101b7576040805160208082526008908201527f6f766572666c6f7700000000000000000000000000000000000000000000000081830152905133917f55d68e0254b44d1d00659bd7e45544dea474c1b9d01304669332e1111dcd9d33919081900360600190a25b565b600073c5d105e63711398af9bbff092d4b6769c82f793d3b1190565b8151818102600080841180156101fa5750336000908152602081905260409020548211155b151561020557600080fd5b50336000908152602081905260408120805483900390555b828110156102755783600080878481518110151561023757fe5b602090810290910181015173ffffffffffffffffffffffffffffffffffffffff1682528101919091526040016000208054909101905560010161021d565b5050505050565b600060208190529081526040902054815600a165627a7a723058202d63a47066eeb5ef520e213ee7f643090745b0da63c17547f628386fda2f208a0029","opcodes":"PUSH1 0x80 PUSH1 0x40 MSTORE CALLVALUE DUP1 ISZERO PUSH2 0x10 JUMPI PUSH1 0x0 DUP1 REVERT JUMPDEST POP PUSH2 0x2BA DUP1 PUSH2 0x20 PUSH1 0x0 CODECOPY PUSH1 0x0 RETURN STOP PUSH1 0x80 PUSH1 0x40 MSTORE PUSH1 0x4 CALLDATASIZE LT PUSH2 0x61 JUMPI PUSH4 0xFFFFFFFF PUSH29 0x100000000000000000000000000000000000000000000000000000000 PUSH1 0x0 CALLDATALOAD DIV AND PUSH4 0x1288F3C DUP2 EQ PUSH2 0x66 JUMPI DUP1 PUSH4 0x5AC687A8 EQ PUSH2 0x7D JUMPI DUP1 PUSH4 0x83F12FEC EQ PUSH2 0xA6 JUMPI DUP1 PUSH4 0xE3D670D7 EQ PUSH2 0xFD JUMPI JUMPDEST PUSH1 0x0 DUP1 REVERT JUMPDEST CALLVALUE DUP1 ISZERO PUSH2 0x72 JUMPI PUSH1 0x0 DUP1 REVERT JUMPDEST POP PUSH2 0x7B PUSH2 0x13D JUMP JUMPDEST STOP JUMPDEST CALLVALUE DUP1 ISZERO PUSH2 0x89 JUMPI PUSH1 0x0 DUP1 REVERT JUMPDEST POP PUSH2 0x92 PUSH2 0x1B9 JUMP JUMPDEST PUSH1 0x40 DUP1 MLOAD SWAP2 ISZERO ISZERO DUP3 MSTORE MLOAD SWAP1 DUP2 SWAP1 SUB PUSH1 0x20 ADD SWAP1 RETURN JUMPDEST CALLVALUE DUP1 ISZERO PUSH2 0xB2 JUMPI PUSH1 0x0 DUP1 REVERT JUMPDEST POP PUSH1 0x40 DUP1 MLOAD PUSH1 0x20 PUSH1 0x4 DUP1 CALLDATALOAD DUP1 DUP3 ADD CALLDATALOAD DUP4 DUP2 MUL DUP1 DUP7 ADD DUP6 ADD SWAP1 SWAP7 MSTORE DUP1 DUP6 MSTORE PUSH2 0x7B SWAP6 CALLDATASIZE SWAP6 SWAP4 SWAP5 PUSH1 0x24 SWAP5 SWAP4 DUP6 ADD SWAP3 SWAP2 DUP3 SWAP2 DUP6 ADD SWAP1 DUP5 SWAP1 DUP1 DUP3 DUP5 CALLDATACOPY POP SWAP5 SWAP8 POP POP SWAP4 CALLDATALOAD SWAP5 POP PUSH2 0x1D5 SWAP4 POP POP POP POP JUMP JUMPDEST CALLVALUE DUP1 ISZERO PUSH2 0x109 JUMPI PUSH1 0x0 DUP1 REVERT JUMPDEST POP PUSH2 0x12B PUSH20 0xFFFFFFFFFFFFFFFFFFFFFFFFFFFFFFFFFFFFFFFF PUSH1 0x4 CALLDATALOAD AND PUSH2 0x27C JUMP JUMPDEST PUSH1 0x40 DUP1 MLOAD SWAP2 DUP3 MSTORE MLOAD SWAP1 DUP2 SWAP1 SUB PUSH1 0x20 ADD SWAP1 RETURN JUMPDEST CALLER PUSH1 0x0 SWAP1 DUP2 MSTORE PUSH1 0x20 DUP2 SWAP1 MSTORE PUSH1 0x40 DUP2 KECCAK256 SLOAD GT ISZERO PUSH2 0x1B7 JUMPI PUSH1 0x40 DUP1 MLOAD PUSH1 0x20 DUP1 DUP3 MSTORE PUSH1 0x8 SWAP1 DUP3 ADD MSTORE PUSH32 0x6F766572666C6F77000000000000000000000000000000000000000000000000 DUP2 DUP4 ADD MSTORE SWAP1 MLOAD CALLER SWAP2 PUSH32 0x55D68E0254B44D1D00659BD7E45544DEA474C1B9D01304669332E1111DCD9D33 SWAP2 SWAP1 DUP2 SWAP1 SUB PUSH1 0x60 ADD SWAP1 LOG2 JUMPDEST JUMP JUMPDEST PUSH1 0x0 PUSH20 0xC5D105E63711398AF9BBFF092D4B6769C82F793D EXTCODESIZE GT SWAP1 JUMP JUMPDEST DUP2 MLOAD DUP2 DUP2 MUL PUSH1 0x0 DUP1 DUP5 GT DUP1 ISZERO PUSH2 0x1FA JUMPI POP CALLER PUSH1 0x0 SWAP1 DUP2 MSTORE PUSH1 0x20 DUP2 SWAP1 MSTORE PUSH1 0x40 SWAP1 KECCAK256 SLOAD DUP3 GT ISZERO JUMPDEST ISZERO ISZERO PUSH2 0x205 JUMPI PUSH1 0x0 DUP1 REVERT JUMPDEST POP CALLER PUSH1 0x0 SWAP1 DUP2 MSTORE PUSH1 0x20 DUP2 SWAP1 MSTORE PUSH1 0x40 DUP2 KECCAK256 DUP1 SLOAD DUP4 SWAP1 SUB SWAP1 SSTORE JUMPDEST DUP3 DUP2 LT ISZERO PUSH2 0x275 JUMPI DUP4 PUSH1 0x0 DUP1 DUP8 DUP5 DUP2 MLOAD DUP2 LT ISZERO ISZERO PUSH2 0x237 JUMPI INVALID JUMPDEST PUSH1 0x20 SWAP1 DUP2 MUL SWAP1 SWAP2 ADD DUP2 ADD MLOAD PUSH20 0xFFFFFFFFFFFFFFFFFFFFFFFFFFFFFFFFFFFFFFFF AND DUP3 MSTORE DUP2 ADD SWAP2 SWAP1 SWAP2 MSTORE PUSH1 0x40 ADD PUSH1 0x0 KECCAK256 DUP1 SLOAD SWAP1 SWAP2 ADD SWAP1 SSTORE PUSH1 0x1 ADD PUSH2 0x21D JUMP JUMPDEST POP POP POP POP POP JUMP JUMPDEST PUSH1 0x0 PUSH1 0x20 DUP2 SWAP1 MSTORE SWAP1 DUP2 MSTORE PUSH1 0x40 SWAP1 KECCAK256 SLOAD DUP2 JUMP STOP LOG1 PUSH6 0x627A7A723058 KECCAK256 0x2d PUSH4 0xA47066EE 0xb5 0xef MSTORE 0xe 0x21 RETURNDATACOPY 0xe7 0xf6 NUMBER MULMOD SMOD GASLIMIT 0xb0 0xda PUSH4 0xC17547F6 0x28 CODESIZE PUSH16 0xDA2F208A002900000000000000000000 "},"methodIdentifiers":{"balance(address)":"e3d670d7","batchTransfer(address[],uint256)":"83f12fec","caress()":"01288f3c","remember()":"5ac687a8"}}}}}