{"contracts/Caretaker.sol":{"Caretaker":{"abi":[{"inputs":[{"internalType":"address","name":"cat","type":"address"}],"name":"claim","outputs":[],"stateMutability":"nonpayable","type":"function"},{"inputs":[{"internalType":"address","name":"cat","type":"address"}],"name":"overflow","outputs":[],"stateMutability":"nonpayable","type":"function"},{"inputs":[{"internalType":"address","name":"cat","type":"address"}],"name":"rename","outputs":[],"stateMutability":"nonpayable","type":"function"}],"evm":{"bytecode":{"linkReferences":{},"object":"60808060405234601557610495908161001b8239f35b600080fdfe608080604052600436101561001357600080fd5b600090813560e01c9081631e83409a1461031857508063a3a183c1146101745763da2cac4b1461004257600080fd5b346100dc5760203660031901126100dc57806004356001600160a01b038116908190036100ea57604051638da5cb5b60e01b8152602081600481855afa90811561013a578391610145575b50306001600160a01b03909116036100ed575b803b156100ea57818091600460405180948193624a23cf60e21b83525af180156100df576100cb5750f35b816100d591610403565b6100dc5780f35b80fd5b6040513d84823e3d90fd5b50fd5b803b156100ea5760405163b35cd4fb60e01b8152306004820152828160248183865af190811561013a578391610125575b50506100a0565b8161012f91610403565b6100ea57813861011e565b6040513d85823e3d90fd5b610167915060203d60201161016d575b61015f8183610403565b81019061043b565b3861008d565b503d610155565b50346100dc5760203660031901126100dc576004356001600160a01b03811691908290036100dc5760405163e3d670d760e01b8152306004820152602081602481865afa9081156100df5782916102e2575b50156101fa575b8181923b156100ea57818091600460405180948193624a23cf60e21b83525af180156100df576100cb5750f35b60405191610209606084610403565b60028352602083019260403685378051156102ce573084528051600110156102ce5761dead6040820152813b156102ca57604051906320fc4bfb60e21b825260448201906040600484015251809152606482019490845b8181106102ab575050508281808296600160ff1b6024830152038183865af190811561013a578391610296575b505091506101cd565b816102a091610403565b6100ea57813861028d565b82516001600160a01b0316875260209687019690920191600101610260565b8280fd5b634e487b7160e01b83526032600452602483fd5b90506020813d602011610310575b816102fd60209383610403565b8101031261030c5751386101c6565b5080fd5b3d91506102f0565b82346100dc5760203660031901126100dc576004356001600160a01b038116929083900361030c57638da5cb5b60e01b8152602081600481865afa9081156100df5782916103e4575b50306001600160a01b03909116036103a0578181923b156100ea57818091600460405180948193624a23cf60e21b83525af180156100df576100cb5750f35b813b156100dc5760405163066ad14f60e21b8152306004820152818160248183875af180156100df576103d4575b506101cd565b816103de91610403565b826103ce565b6103fd915060203d60201161016d5761015f8183610403565b83610361565b90601f8019910116810190811067ffffffffffffffff82111761042557604052565b634e487b7160e01b600052604160045260246000fd5b9081602091031261045a57516001600160a01b038116810361045a5790565b600080fdfea2646970667358221220e54a82e52c51972a6ef072923ddedbab00b12e481cad5b06463cb9e2a134e56a64736f6c634300081e0033","opcodes":"PUSH1 0x80 DUP1 PUSH1 0x40 MSTORE CALLVALUE PUSH1 0x15 JUMPI PUSH2 0x495 SWAP1 DUP2 PUSH2 0x1B DUP3 CODECOPY RETURN JUMPDEST PUSH1 0x0 DUP1 REVERT INVALID PUSH1 0x80 DUP1 PUSH1 0x40 MSTORE PUSH1 0x4 CALLDATASIZE LT ISZERO PUSH2 0x13 JUMPI PUSH1 0x0 DUP1 REVERT JUMPDEST PUSH1 0x0 SWAP1 DUP2 CALLDATALOAD PUSH1 0xE0 SHR SWAP1 DUP2 PUSH4 0x1E83409A EQ PUSH2 0x318 JUMPI POP DUP1 PUSH4 0xA3A183C1 EQ PUSH2 0x174 JUMPI PUSH4 0xDA2CAC4B EQ PUSH2 0x42 JUMPI PUSH1 0x0 DUP1 REVERT JUMPDEST CALLVALUE PUSH2 0xDC JUMPI PUSH1 0x20 CALLDATASIZE PUSH1 0x3 NOT ADD SLT PUSH2 0xDC JUMPI DUP1 PUSH1 0x4 CALLDATALOAD PUSH1 0x1 PUSH1 0x1 PUSH1 0xA0 SHL SUB DUP2 AND SWAP1 DUP2 SWAP1 SUB PUSH2 0xEA JUMPI PUSH1 0x40 MLOAD PUSH4 0x8DA5CB5B PUSH1 0xE0 SHL DUP2 MSTORE PUSH1 0x20 DUP2 PUSH1 0x4 DUP2 DUP6 GAS STATICCALL SWAP1 DUP2 ISZERO PUSH2 0x13A JUMPI DUP4 SWAP2 PUSH2 0x145 JUMPI JUMPDEST POP ADDRESS PUSH1 0x1 PUSH1 0x1 PUSH1 0xA0 SHL SUB SWAP1 SWAP2 AND SUB PUSH2 0xED JUMPI JUMPDEST DUP1 EXTCODESIZE ISZERO PUSH2 0xEA JUMPI DUP2 DUP1 SWAP2 PUSH1 0x4 PUSH1 0x40 MLOAD DUP1 SWAP5 DUP2 SWAP4 PUSH3 0x4A23CF PUSH1 0xE2 SHL DUP4 MSTORE GAS CALL DUP1 ISZERO PUSH2 0xDF JUMPI PUSH2 0xCB JUMPI POP RETURN JUMPDEST DUP2 PUSH2 0xD5 SWAP2 PUSH2 0x403 JUMP JUMPDEST PUSH2 0xDC JUMPI DUP1 RETURN JUMPDEST DUP1 REVERT JUMPDEST PUSH1 0x40 MLOAD RETURNDATASIZE DUP5 DUP3 RETURNDATACOPY RETURNDATASIZE SWAP1 REVERT JUMPDEST POP REVERT JUMPDEST DUP1 EXTCODESIZE ISZERO PUSH2 0xEA JUMPI PUSH1 0x40 MLOAD PUSH4 0xB35CD4FB PUSH1 0xE0 SHL DUP2 MSTORE ADDRESS PUSH1 0x4 DUP3 ADD MSTORE DUP3 DUP2 PUSH1 0x24 DUP2 DUP4 DUP7 GAS CALL SWAP1 DUP2 ISZERO PUSH2 0x13A JUMPI DUP4 SWAP2 PUSH2 0x125 JUMPI JUMPDEST POP POP PUSH2 0xA0 JUMP JUMPDEST DUP2 PUSH2 0x12F SWAP2 PUSH2 0x403 JUMP JUMPDEST PUSH2 0xEA JUMPI DUP2 CODESIZE PUSH2 0x11E JUMP JUMPDEST PUSH1 0x40 MLOAD RETURNDATASIZE DUP6 DUP3 RETURNDATACOPY RETURNDATASIZE SWAP1 REVERT JUMPDEST PUSH2 0x167 SWAP2 POP PUSH1 0x20 RETURNDATASIZE PUSH1 0x20 GT PUSH2 0x16D JUMPI JUMPDEST PUSH2 0x15F DUP2 DUP4 PUSH2 0x403 JUMP JUMPDEST DUP2 ADD SWAP1 PUSH2 0x43B JUMP JUMPDEST CODESIZE PUSH2 0x8D JUMP JUMPDEST POP RETURNDATASIZE PUSH2 0x155 JUMP JUMPDEST POP CALLVALUE PUSH2 0xDC JUMPI PUSH1 0x20 CALLDATASIZE PUSH1 0x3 NOT ADD SLT PUSH2 0xDC JUMPI PUSH1 0x4 CALLDATALOAD PUSH1 0x1 PUSH1 0x1 PUSH1 0xA0 SHL SUB DUP2 AND SWAP2 SWAP1 DUP3 SWAP1 SUB PUSH2 0xDC JUMPI PUSH1 0x40 MLOAD PUSH4 0xE3D670D7 PUSH1 0xE0 SHL DUP2 MSTORE ADDRESS PUSH1 0x4 DUP3 ADD MSTORE PUSH1 0x20 DUP2 PUSH1 0x24 DUP2 DUP7 GAS STATICCALL SWAP1 DUP2 ISZERO PUSH2 0xDF JUMPI DUP3 SWAP2 PUSH2 0x2E2 JUMPI JUMPDEST POP ISZERO PUSH2 0x1FA JUMPI JUMPDEST DUP2 DUP2 SWAP3 EXTCODESIZE ISZERO PUSH2 0xEA JUMPI DUP2 DUP1 SWAP2 PUSH1 0x4 PUSH1 0x40 MLOAD DUP1 SWAP5 DUP2 SWAP4 PUSH3 0x4A23CF PUSH1 0xE2 SHL DUP4 MSTORE GAS CALL DUP1 ISZERO PUSH2 0xDF JUMPI PUSH2 0xCB JUMPI POP RETURN JUMPDEST PUSH1 0x40 MLOAD SWAP2 PUSH2 0x209 PUSH1 0x60 DUP5 PUSH2 0x403 JUMP JUMPDEST PUSH1 0x2 DUP4 MSTORE PUSH1 0x20 DUP4 ADD SWAP3 PUSH1 0x40 CALLDATASIZE DUP6 CALLDATACOPY DUP1 MLOAD ISZERO PUSH2 0x2CE JUMPI ADDRESS DUP5 MSTORE DUP1 MLOAD PUSH1 0x1 LT ISZERO PUSH2 0x2CE JUMPI PUSH2 0xDEAD PUSH1 0x40 DUP3 ADD MSTORE DUP2 EXTCODESIZE ISZERO PUSH2 0x2CA JUMPI PUSH1 0x40 MLOAD SWAP1 PUSH4 0x20FC4BFB PUSH1 0xE2 SHL DUP3 MSTORE PUSH1 0x44 DUP3 ADD SWAP1 PUSH1 0x40 PUSH1 0x4 DUP5 ADD MSTORE MLOAD DUP1 SWAP2 MSTORE PUSH1 0x64 DUP3 ADD SWAP5 SWAP1 DUP5 JUMPDEST DUP2 DUP2 LT PUSH2 0x2AB JUMPI POP POP POP DUP3 DUP2 DUP1 DUP3 SWAP7 PUSH1 0x1 PUSH1 0xFF SHL PUSH1 0x24 DUP4 ADD MSTORE SUB DUP2 DUP4 DUP7 GAS CALL SWAP1 DUP2 ISZERO PUSH2 0x13A JUMPI DUP4 SWAP2 PUSH2 0x296 JUMPI JUMPDEST POP POP SWAP2 POP PUSH2 0x1CD JUMP JUMPDEST DUP2 PUSH2 0x2A0 SWAP2 PUSH2 0x403 JUMP JUMPDEST PUSH2 0xEA JUMPI DUP2 CODESIZE PUSH2 0x28D JUMP JUMPDEST DUP3 MLOAD PUSH1 0x1 PUSH1 0x1 PUSH1 0xA0 SHL SUB AND DUP8 MSTORE PUSH1 0x20 SWAP7 DUP8 ADD SWAP7 SWAP1 SWAP3 ADD SWAP2 PUSH1 0x1 ADD PUSH2 0x260 JUMP JUMPDEST DUP3 DUP1 REVERT JUMPDEST PUSH4 0x4E487B71 PUSH1 0xE0 SHL DUP4 MSTORE PUSH1 0x32 PUSH1 0x4 MSTORE PUSH1 0x24 DUP4 REVERT JUMPDEST SWAP1 POP PUSH1 0x20 DUP2 RETURNDATASIZE PUSH1 0x20 GT PUSH2 0x310 JUMPI JUMPDEST DUP2 PUSH2 0x2FD PUSH1 0x20 SWAP4 DUP4 PUSH2 0x403 JUMP JUMPDEST DUP2 ADD SUB SLT PUSH2 0x30C JUMPI MLOAD CODESIZE PUSH2 0x1C6 JUMP JUMPDEST POP DUP1 REVERT JUMPDEST RETURNDATASIZE SWAP2 POP PUSH2 0x2F0 JUMP JUMPDEST DUP3 CALLVALUE PUSH2 0xDC JUMPI PUSH1 0x20 CALLDATASIZE PUSH1 0x3 NOT ADD SLT PUSH2 0xDC JUMPI PUSH1 0x4 CALLDATALOAD PUSH1 0x1 PUSH1 0x1 PUSH1 0xA0 SHL SUB DUP2 AND SWAP3 SWAP1 DUP4 SWAP1 SUB PUSH2 0x30C JUMPI PUSH4 0x8DA5CB5B PUSH1 0xE0 SHL DUP2 MSTORE PUSH1 0x20 DUP2 PUSH1 0x4 DUP2 DUP7 GAS STATICCALL SWAP1 DUP2 ISZERO PUSH2 0xDF JUMPI DUP3 SWAP2 PUSH2 0x3E4 JUMPI JUMPDEST POP ADDRESS PUSH1 0x1 PUSH1 0x1 PUSH1 0xA0 SHL SUB SWAP1 SWAP2 AND SUB PUSH2 0x3A0 JUMPI DUP2 DUP2 SWAP3 EXTCODESIZE ISZERO PUSH2 0xEA JUMPI DUP2 DUP1 SWAP2 PUSH1 0x4 PUSH1 0x40 MLOAD DUP1 SWAP5 DUP2 SWAP4 PUSH3 0x4A23CF PUSH1 0xE2 SHL DUP4 MSTORE GAS CALL DUP1 ISZERO PUSH2 0xDF JUMPI PUSH2 0xCB JUMPI POP RETURN JUMPDEST DUP2 EXTCODESIZE ISZERO PUSH2 0xDC JUMPI PUSH1 0x40 MLOAD PUSH4 0x66AD14F PUSH1 0xE2 SHL DUP2 MSTORE ADDRESS PUSH1 0x4 DUP3 ADD MSTORE DUP2 DUP2 PUSH1 0x24 DUP2 DUP4 DUP8 GAS CALL DUP1 ISZERO PUSH2 0xDF JUMPI PUSH2 0x3D4 JUMPI JUMPDEST POP PUSH2 0x1CD JUMP JUMPDEST DUP2 PUSH2 0x3DE SWAP2 PUSH2 0x403 JUMP JUMPDEST DUP3 PUSH2 0x3CE JUMP JUMPDEST PUSH2 0x3FD SWAP2 POP PUSH1 0x20 RETURNDATASIZE PUSH1 0x20 GT PUSH2 0x16D JUMPI PUSH2 0x15F DUP2 DUP4 PUSH2 0x403 JUMP JUMPDEST DUP4 PUSH2 0x361 JUMP JUMPDEST SWAP1 PUSH1 0x1F DUP1 NOT SWAP2 ADD AND DUP2 ADD SWAP1 DUP2 LT PUSH8 0xFFFFFFFFFFFFFFFF DUP3 GT OR PUSH2 0x425 JUMPI PUSH1 0x40 MSTORE JUMP JUMPDEST PUSH4 0x4E487B71 PUSH1 0xE0 SHL PUSH1 0x0 MSTORE PUSH1 0x41 PUSH1 0x4 MSTORE PUSH1 0x24 PUSH1 0x0 REVERT JUMPDEST SWAP1 DUP2 PUSH1 0x20 SWAP2 SUB SLT PUSH2 0x45A JUMPI MLOAD PUSH1 0x1 PUSH1 0x1 PUSH1 0xA0 SHL SUB DUP2 AND DUP2 SUB PUSH2 0x45A JUMPI SWAP1 JUMP JUMPDEST PUSH1 0x0 DUP1 REVERT INVALID LOG2 PUSH5 0x6970667358 0x22 SLT KECCAK256 JUMPF 0x4A82 JUMPF 0x2C51 SWAP8 0x2A PUSH15 0xF072923DDEDBAB00B12E481CAD5B06 CHAINID EXTCODECOPY 0xB9 0xE2 LOG1 CALLVALUE JUMPF 0x6A64 PUSH20 0x6F6C634300081E00330000000000000000000000 "},"methodIdentifiers":{"claim(address)":"1e83409a","overflow(address)":"a3a183c1","rename(address)":"da2cac4b"}}}}}