{"contracts/Seeker.sol":{"Seeker":{"abi":[{"inputs":[{"internalType":"address","name":"_cat","type":"address"}],"stateMutability":"nonpayable","type":"constructor"},{"inputs":[],"name":"caress","outputs":[],"stateMutability":"payable","type":"function"},{"stateMutability":"payable","type":"receive"}],"evm":{"bytecode":{"linkReferences":{},"object":"60a034606d57601f6102f938819003918201601f19168301916001600160401b03831184841017607257808492602094604052833981010312606d57516001600160a01b03811690819003606d57608052604051610270908161008982396080518181816020015260f40152f35b600080fd5b634e487b7160e01b600052604160045260246000fdfe60808060405260043610156100d0575b50361561001b57600080fd5b6000807f00000000000000000000000000000000000000000000000000000000000000006001600160a01b031680311561009b57803b15610098578190600460405180948193633ccfd60b60e01b83525af1801561008d5761007957005b610084828092610202565b61008a57005b80fd5b6040513d84823e3d90fd5b50fd5b803b15610098578190600460405180948193624a23cf60e21b83525af1801561008d576100c457005b816100ce91610202565b005b6000803560e01c6301288f3c146100e7575061000f565b8060031936011261008a577f00000000000000000000000000000000000000000000000000000000000000006001600160a01b031691823b156101fe57630d0e30db60e41b8152818160048134875af1801561008d576101ee575b508181923b1561009857818091600460405180948193633ccfd60b60e01b83525af1801561008d576101d9575b5047806101795750f35b81808092335af13d156101d4573d67ffffffffffffffff81116101c057604051906101ae601f8201601f191660200183610202565b81528260203d92013e5b1561008a5780f35b634e487b7160e01b83526041600452602483fd5b6101b8565b816101e391610202565b61008a57803861016f565b816101f891610202565b38610142565b5080fd5b90601f8019910116810190811067ffffffffffffffff82111761022457604052565b634e487b7160e01b600052604160045260246000fdfea2646970667358221220b0a663ffd4c6635c254c49668c3d96bac4328a12a6bfe614fc03c84d0cf5cbfe64736f6c634300081e0033","opcodes":"PUSH1 0xA0 CALLVALUE PUSH1 0x6D JUMPI PUSH1 0x1F PUSH2 0x2F9 CODESIZE DUP2 SWAP1 SUB SWAP2 DUP3 ADD PUSH1 0x1F NOT AND DUP4 ADD SWAP2 PUSH1 0x1 PUSH1 0x1 PUSH1 0x40 SHL SUB DUP4 GT DUP5 DUP5 LT OR PUSH1 0x72 JUMPI DUP1 DUP5 SWAP3 PUSH1 0x20 SWAP5 PUSH1 0x40 MSTORE DUP4 CODECOPY DUP2 ADD SUB SLT PUSH1 0x6D JUMPI MLOAD PUSH1 0x1 PUSH1 0x1 PUSH1 0xA0 SHL SUB DUP2 AND SWAP1 DUP2 SWAP1 SUB PUSH1 0x6D JUMPI PUSH1 0x80 MSTORE PUSH1 0x40 MLOAD PUSH2 0x270 SWAP1 DUP2 PUSH2 0x89 DUP3 CODECOPY PUSH1 0x80 MLOAD DUP2 DUP2 DUP2 PUSH1 0x20 ADD MSTORE PUSH1 0xF4 ADD MSTORE RETURN JUMPDEST PUSH1 0x0 DUP1 REVERT JUMPDEST PUSH4 0x4E487B71 PUSH1 0xE0 SHL PUSH1 0x0 MSTORE PUSH1 0x41 PUSH1 0x4 MSTORE PUSH1 0x24 PUSH1 0x0 REVERT INVALID PUSH1 0x80 DUP1 PUSH1 0x40 MSTORE PUSH1 0x4 CALLDATASIZE LT ISZERO PUSH2 0xD0 JUMPI JUMPDEST POP CALLDATASIZE ISZERO PUSH2 0x1B JUMPI PUSH1 0x0 DUP1 REVERT JUMPDEST PUSH1 0x0 DUP1 PUSH32 0x0 PUSH1 0x1 PUSH1 0x1 PUSH1 0xA0 SHL SUB AND DUP1 BALANCE ISZERO PUSH2 0x9B JUMPI DUP1 EXTCODESIZE ISZERO PUSH2 0x98 JUMPI DUP2 SWAP1 PUSH1 0x4 PUSH1 0x40 MLOAD DUP1 SWAP5 DUP2 SWAP4 PUSH4 0x3CCFD60B PUSH1 0xE0 SHL DUP4 MSTORE GAS CALL DUP1 ISZERO PUSH2 0x8D JUMPI PUSH2 0x79 JUMPI STOP JUMPDEST PUSH2 0x84 DUP3 DUP1 SWAP3 PUSH2 0x202 JUMP JUMPDEST PUSH2 0x8A JUMPI STOP JUMPDEST DUP1 REVERT JUMPDEST PUSH1 0x40 MLOAD RETURNDATASIZE DUP5 DUP3 RETURNDATACOPY RETURNDATASIZE SWAP1 REVERT JUMPDEST POP REVERT JUMPDEST DUP1 EXTCODESIZE ISZERO PUSH2 0x98 JUMPI DUP2 SWAP1 PUSH1 0x4 PUSH1 0x40 MLOAD DUP1 SWAP5 DUP2 SWAP4 PUSH3 0x4A23CF PUSH1 0xE2 SHL DUP4 MSTORE GAS CALL DUP1 ISZERO PUSH2 0x8D JUMPI PUSH2 0xC4 JUMPI STOP JUMPDEST DUP2 PUSH2 0xCE SWAP2 PUSH2 0x202 JUMP JUMPDEST STOP JUMPDEST PUSH1 0x0 DUP1 CALLDATALOAD PUSH1 0xE0 SHR PUSH4 0x1288F3C EQ PUSH2 0xE7 JUMPI POP PUSH2 0xF JUMP JUMPDEST DUP1 PUSH1 0x3 NOT CALLDATASIZE ADD SLT PUSH2 0x8A JUMPI PUSH32 0x0 PUSH1 0x1 PUSH1 0x1 PUSH1 0xA0 SHL SUB AND SWAP2 DUP3 EXTCODESIZE ISZERO PUSH2 0x1FE JUMPI PUSH4 0xD0E30DB PUSH1 0xE4 SHL DUP2 MSTORE DUP2 DUP2 PUSH1 0x4 DUP2 CALLVALUE DUP8 GAS CALL DUP1 ISZERO PUSH2 0x8D JUMPI PUSH2 0x1EE JUMPI JUMPDEST POP DUP2 DUP2 SWAP3 EXTCODESIZE ISZERO PUSH2 0x98 JUMPI DUP2 DUP1 SWAP2 PUSH1 0x4 PUSH1 0x40 MLOAD DUP1 SWAP5 DUP2 SWAP4 PUSH4 0x3CCFD60B PUSH1 0xE0 SHL DUP4 MSTORE GAS CALL DUP1 ISZERO PUSH2 0x8D JUMPI PUSH2 0x1D9 JUMPI JUMPDEST POP SELFBALANCE DUP1 PUSH2 0x179 JUMPI POP RETURN JUMPDEST DUP2 DUP1 DUP1 SWAP3 CALLER GAS CALL RETURNDATASIZE ISZERO PUSH2 0x1D4 JUMPI RETURNDATASIZE PUSH8 0xFFFFFFFFFFFFFFFF DUP2 GT PUSH2 0x1C0 JUMPI PUSH1 0x40 MLOAD SWAP1 PUSH2 0x1AE PUSH1 0x1F DUP3 ADD PUSH1 0x1F NOT AND PUSH1 0x20 ADD DUP4 PUSH2 0x202 JUMP JUMPDEST DUP2 MSTORE DUP3 PUSH1 0x20 RETURNDATASIZE SWAP3 ADD RETURNDATACOPY JUMPDEST ISZERO PUSH2 0x8A JUMPI DUP1 RETURN JUMPDEST PUSH4 0x4E487B71 PUSH1 0xE0 SHL DUP4 MSTORE PUSH1 0x41 PUSH1 0x4 MSTORE PUSH1 0x24 DUP4 REVERT JUMPDEST PUSH2 0x1B8 JUMP JUMPDEST DUP2 PUSH2 0x1E3 SWAP2 PUSH2 0x202 JUMP JUMPDEST PUSH2 0x8A JUMPI DUP1 CODESIZE PUSH2 0x16F JUMP JUMPDEST DUP2 PUSH2 0x1F8 SWAP2 PUSH2 0x202 JUMP JUMPDEST CODESIZE PUSH2 0x142 JUMP JUMPDEST POP DUP1 REVERT JUMPDEST SWAP1 PUSH1 0x1F DUP1 NOT SWAP2 ADD AND DUP2 ADD SWAP1 DUP2 LT PUSH8 0xFFFFFFFFFFFFFFFF DUP3 GT OR PUSH2 0x224 JUMPI PUSH1 0x40 MSTORE JUMP JUMPDEST PUSH4 0x4E487B71 PUSH1 0xE0 SHL PUSH1 0x0 MSTORE PUSH1 0x41 PUSH1 0x4 MSTORE PUSH1 0x24 PUSH1 0x0 REVERT INVALID LOG2 PUSH5 0x6970667358 0x22 SLT KECCAK256 0xB0 0xA6 PUSH4 0xFFD4C663 TLOAD 0x25 0x4C BLOBHASH PUSH7 0x8C3D96BAC4328A SLT 0xA6 0xBF DUPN 0x14 0xFC SUB 0xC8 0x4D 0xC CREATE2 0xCB INVALID PUSH5 0x736F6C6343 STOP ADDMOD 0x1E STOP CALLER "},"methodIdentifiers":{"caress()":"01288f3c"}}}}}