{"contracts/cats/PredictableCat.sol":{"PredictableCat":{"abi":[{"anonymous":false,"inputs":[{"indexed":true,"internalType":"address","name":"caretaker","type":"address"},{"indexed":false,"internalType":"string","name":"wound","type":"string"}],"name":"Meow","type":"event"},{"inputs":[],"name":"caress","outputs":[],"stateMutability":"nonpayable","type":"function"},{"inputs":[],"name":"flip","outputs":[],"stateMutability":"nonpayable","type":"function"},{"inputs":[],"name":"remember","outputs":[{"internalType":"bool","name":"","type":"bool"}],"stateMutability":"view","type":"function"},{"inputs":[{"internalType":"address","name":"","type":"address"}],"name":"winCount","outputs":[{"internalType":"uint8","name":"","type":"uint8"}],"stateMutability":"view","type":"function"}],"evm":{"bytecode":{"linkReferences":{},"object":"60808060405234601557610255908161001b8239f35b600080fdfe608080604052600436101561001357600080fd5b60003560e01c90816301288f3c146101925750806354bd5023146101515780635ac687a81461011e5763cde4efa91461004b57600080fd5b3461011957600036600319011261011957604051602081014281524460408301523360601b606083015260548252608082019180831067ffffffffffffffff8411176101035760019260405251902016156000146100e8573360005260006020526040600020600160ff8254160160ff81116100d25760ff1660ff19825416179055600080f35b634e487b7160e01b600052601160045260246000fd5b336000526000602052604060002060ff198154169055600080f35b634e487b7160e01b600052604160045260246000fd5b600080fd5b3461011957600036600319011261011957602073a62142888aba8370742be823c1782d17a0389da13b1515604051908152f35b34610119576020366003190112610119576004356001600160a01b03811690819003610119576000526000602052602060ff60406000205416604051908152f35b3461011957600036600319011261011957336000526000602052600a60ff6040600020541610156101bf57005b60208152600b60208201526a7072656469637461626c6560a81b60408201527f55d68e0254b44d1d00659bd7e45544dea474c1b9d01304669332e1111dcd9d3360603392a2336000526000602052604060002060ff198154169055600080f3fea26469706673582212207bd5c6653b56baf8cc7a5adf50b7564cd50990944d14cda2e836e2437000f65964736f6c634300081e0033","opcodes":"PUSH1 0x80 DUP1 PUSH1 0x40 MSTORE CALLVALUE PUSH1 0x15 JUMPI PUSH2 0x255 SWAP1 DUP2 PUSH2 0x1B DUP3 CODECOPY RETURN JUMPDEST PUSH1 0x0 DUP1 REVERT INVALID PUSH1 0x80 DUP1 PUSH1 0x40 MSTORE PUSH1 0x4 CALLDATASIZE LT ISZERO PUSH2 0x13 JUMPI PUSH1 0x0 DUP1 REVERT JUMPDEST PUSH1 0x0 CALLDATALOAD PUSH1 0xE0 SHR SWAP1 DUP2 PUSH4 0x1288F3C EQ PUSH2 0x192 JUMPI POP DUP1 PUSH4 0x54BD5023 EQ PUSH2 0x151 JUMPI DUP1 PUSH4 0x5AC687A8 EQ PUSH2 0x11E JUMPI PUSH4 0xCDE4EFA9 EQ PUSH2 0x4B JUMPI PUSH1 0x0 DUP1 REVERT JUMPDEST CALLVALUE PUSH2 0x119 JUMPI PUSH1 0x0 CALLDATASIZE PUSH1 0x3 NOT ADD SLT PUSH2 0x119 JUMPI PUSH1 0x40 MLOAD PUSH1 0x20 DUP2 ADD TIMESTAMP DUP2 MSTORE PREVRANDAO PUSH1 0x40 DUP4 ADD MSTORE CALLER PUSH1 0x60 SHL PUSH1 0x60 DUP4 ADD MSTORE PUSH1 0x54 DUP3 MSTORE PUSH1 0x80 DUP3 ADD SWAP2 DUP1 DUP4 LT PUSH8 0xFFFFFFFFFFFFFFFF DUP5 GT OR PUSH2 0x103 JUMPI PUSH1 0x1 SWAP3 PUSH1 0x40 MSTORE MLOAD SWAP1 KECCAK256 AND ISZERO PUSH1 0x0 EQ PUSH2 0xE8 JUMPI CALLER PUSH1 0x0 MSTORE PUSH1 0x0 PUSH1 0x20 MSTORE PUSH1 0x40 PUSH1 0x0 KECCAK256 PUSH1 0x1 PUSH1 0xFF DUP3 SLOAD AND ADD PUSH1 0xFF DUP2 GT PUSH2 0xD2 JUMPI PUSH1 0xFF AND PUSH1 0xFF NOT DUP3 SLOAD AND OR SWAP1 SSTORE PUSH1 0x0 DUP1 RETURN JUMPDEST PUSH4 0x4E487B71 PUSH1 0xE0 SHL PUSH1 0x0 MSTORE PUSH1 0x11 PUSH1 0x4 MSTORE PUSH1 0x24 PUSH1 0x0 REVERT JUMPDEST CALLER PUSH1 0x0 MSTORE PUSH1 0x0 PUSH1 0x20 MSTORE PUSH1 0x40 PUSH1 0x0 KECCAK256 PUSH1 0xFF NOT DUP2 SLOAD AND SWAP1 SSTORE PUSH1 0x0 DUP1 RETURN JUMPDEST PUSH4 0x4E487B71 PUSH1 0xE0 SHL PUSH1 0x0 MSTORE PUSH1 0x41 PUSH1 0x4 MSTORE PUSH1 0x24 PUSH1 0x0 REVERT JUMPDEST PUSH1 0x0 DUP1 REVERT JUMPDEST CALLVALUE PUSH2 0x119 JUMPI PUSH1 0x0 CALLDATASIZE PUSH1 0x3 NOT ADD SLT PUSH2 0x119 JUMPI PUSH1 0x20 PUSH20 0xA62142888ABA8370742BE823C1782D17A0389DA1 EXTCODESIZE ISZERO ISZERO PUSH1 0x40 MLOAD SWAP1 DUP2 MSTORE RETURN JUMPDEST CALLVALUE PUSH2 0x119 JUMPI PUSH1 0x20 CALLDATASIZE PUSH1 0x3 NOT ADD SLT PUSH2 0x119 JUMPI PUSH1 0x4 CALLDATALOAD PUSH1 0x1 PUSH1 0x1 PUSH1 0xA0 SHL SUB DUP2 AND SWAP1 DUP2 SWAP1 SUB PUSH2 0x119 JUMPI PUSH1 0x0 MSTORE PUSH1 0x0 PUSH1 0x20 MSTORE PUSH1 0x20 PUSH1 0xFF PUSH1 0x40 PUSH1 0x0 KECCAK256 SLOAD AND PUSH1 0x40 MLOAD SWAP1 DUP2 MSTORE RETURN JUMPDEST CALLVALUE PUSH2 0x119 JUMPI PUSH1 0x0 CALLDATASIZE PUSH1 0x3 NOT ADD SLT PUSH2 0x119 JUMPI CALLER PUSH1 0x0 MSTORE PUSH1 0x0 PUSH1 0x20 MSTORE PUSH1 0xA PUSH1 0xFF PUSH1 0x40 PUSH1 0x0 KECCAK256 SLOAD AND LT ISZERO PUSH2 0x1BF JUMPI STOP JUMPDEST PUSH1 0x20 DUP2 MSTORE PUSH1 0xB PUSH1 0x20 DUP3 ADD MSTORE PUSH11 0x7072656469637461626C65 PUSH1 0xA8 SHL PUSH1 0x40 DUP3 ADD MSTORE PUSH32 0x55D68E0254B44D1D00659BD7E45544DEA474C1B9D01304669332E1111DCD9D33 PUSH1 0x60 CALLER SWAP3 LOG2 CALLER PUSH1 0x0 MSTORE PUSH1 0x0 PUSH1 0x20 MSTORE PUSH1 0x40 PUSH1 0x0 KECCAK256 PUSH1 0xFF NOT DUP2 SLOAD AND SWAP1 SSTORE PUSH1 0x0 DUP1 RETURN INVALID LOG2 PUSH5 0x6970667358 0x22 SLT KECCAK256 PUSH28 0xD5C6653B56BAF8CC7A5ADF50B7564CD50990944D14CDA2E836E24370 STOP 0xF6 MSIZE PUSH5 0x736F6C6343 STOP ADDMOD 0x1E STOP CALLER "},"methodIdentifiers":{"caress()":"01288f3c","flip()":"cde4efa9","remember()":"5ac687a8","winCount(address)":"54bd5023"}}}}}