{"contracts/Prophet.sol":{"Prophet":{"abi":[{"inputs":[{"internalType":"address","name":"cat","type":"address"}],"name":"caress","outputs":[],"stateMutability":"nonpayable","type":"function"}],"evm":{"bytecode":{"linkReferences":{},"object":"608080604052346015576101b1908161001b8239f35b600080fdfe608080604052600436101561001357600080fd5b60003560e01c63c019a54d1461002857600080fd5b346100fe5760203660031901126100fe57600435906001600160a01b03821682036100fe5780602060019201904282524460408201523060601b606082015260548152610076607482610103565b519020161561008157005b60005b600a81106100c1575060008091604051826020820191624a23cf60e21b8352600481526100b2602482610103565b51925af1506100bf61013b565b005b600190600080604051602081019063cde4efa960e01b8252600481526100e8602482610103565b519082875af1506100f761013b565b5001610084565b600080fd5b90601f8019910116810190811067ffffffffffffffff82111761012557604052565b634e487b7160e01b600052604160045260246000fd5b3d15610176573d9067ffffffffffffffff8211610125576040519161016a601f8201601f191660200184610103565b82523d6000602084013e565b60609056fea2646970667358221220914a37ca1d4886fa2f1a7f17e458cab449601c0b15ea36129391defe59200ff064736f6c634300081e0033","opcodes":"PUSH1 0x80 DUP1 PUSH1 0x40 MSTORE CALLVALUE PUSH1 0x15 JUMPI PUSH2 0x1B1 SWAP1 DUP2 PUSH2 0x1B DUP3 CODECOPY RETURN JUMPDEST PUSH1 0x0 DUP1 REVERT INVALID PUSH1 0x80 DUP1 PUSH1 0x40 MSTORE PUSH1 0x4 CALLDATASIZE LT ISZERO PUSH2 0x13 JUMPI PUSH1 0x0 DUP1 REVERT JUMPDEST PUSH1 0x0 CALLDATALOAD PUSH1 0xE0 SHR PUSH4 0xC019A54D EQ PUSH2 0x28 JUMPI PUSH1 0x0 DUP1 REVERT JUMPDEST CALLVALUE PUSH2 0xFE JUMPI PUSH1 0x20 CALLDATASIZE PUSH1 0x3 NOT ADD SLT PUSH2 0xFE JUMPI PUSH1 0x4 CALLDATALOAD SWAP1 PUSH1 0x1 PUSH1 0x1 PUSH1 0xA0 SHL SUB DUP3 AND DUP3 SUB PUSH2 0xFE JUMPI DUP1 PUSH1 0x20 PUSH1 0x1 SWAP3 ADD SWAP1 TIMESTAMP DUP3 MSTORE PREVRANDAO PUSH1 0x40 DUP3 ADD MSTORE ADDRESS PUSH1 0x60 SHL PUSH1 0x60 DUP3 ADD MSTORE PUSH1 0x54 DUP2 MSTORE PUSH2 0x76 PUSH1 0x74 DUP3 PUSH2 0x103 JUMP JUMPDEST MLOAD SWAP1 KECCAK256 AND ISZERO PUSH2 0x81 JUMPI STOP JUMPDEST PUSH1 0x0 JUMPDEST PUSH1 0xA DUP2 LT PUSH2 0xC1 JUMPI POP PUSH1 0x0 DUP1 SWAP2 PUSH1 0x40 MLOAD DUP3 PUSH1 0x20 DUP3 ADD SWAP2 PUSH3 0x4A23CF PUSH1 0xE2 SHL DUP4 MSTORE PUSH1 0x4 DUP2 MSTORE PUSH2 0xB2 PUSH1 0x24 DUP3 PUSH2 0x103 JUMP JUMPDEST MLOAD SWAP3 GAS CALL POP PUSH2 0xBF PUSH2 0x13B JUMP JUMPDEST STOP JUMPDEST PUSH1 0x1 SWAP1 PUSH1 0x0 DUP1 PUSH1 0x40 MLOAD PUSH1 0x20 DUP2 ADD SWAP1 PUSH4 0xCDE4EFA9 PUSH1 0xE0 SHL DUP3 MSTORE PUSH1 0x4 DUP2 MSTORE PUSH2 0xE8 PUSH1 0x24 DUP3 PUSH2 0x103 JUMP JUMPDEST MLOAD SWAP1 DUP3 DUP8 GAS CALL POP PUSH2 0xF7 PUSH2 0x13B JUMP JUMPDEST POP ADD PUSH2 0x84 JUMP JUMPDEST PUSH1 0x0 DUP1 REVERT JUMPDEST SWAP1 PUSH1 0x1F DUP1 NOT SWAP2 ADD AND DUP2 ADD SWAP1 DUP2 LT PUSH8 0xFFFFFFFFFFFFFFFF DUP3 GT OR PUSH2 0x125 JUMPI PUSH1 0x40 MSTORE JUMP JUMPDEST PUSH4 0x4E487B71 PUSH1 0xE0 SHL PUSH1 0x0 MSTORE PUSH1 0x41 PUSH1 0x4 MSTORE PUSH1 0x24 PUSH1 0x0 REVERT JUMPDEST RETURNDATASIZE ISZERO PUSH2 0x176 JUMPI RETURNDATASIZE SWAP1 PUSH8 0xFFFFFFFFFFFFFFFF DUP3 GT PUSH2 0x125 JUMPI PUSH1 0x40 MLOAD SWAP2 PUSH2 0x16A PUSH1 0x1F DUP3 ADD PUSH1 0x1F NOT AND PUSH1 0x20 ADD DUP5 PUSH2 0x103 JUMP JUMPDEST DUP3 MSTORE RETURNDATASIZE PUSH1 0x0 PUSH1 0x20 DUP5 ADD RETURNDATACOPY JUMP JUMPDEST PUSH1 0x60 SWAP1 JUMP INVALID LOG2 PUSH5 0x6970667358 0x22 SLT KECCAK256 SWAP2 BLOBBASEFEE CALLDATACOPY 0xCA SAR BASEFEE DUP7 STATICCALL 0x2F BYTE PUSH32 0x17E458CAB449601C0B15EA36129391DEFE59200FF064736F6C634300081E0033 "},"methodIdentifiers":{"caress(address)":"c019a54d"}}}}}