{"contracts/cats/ReentrancyCat.sol":{"ReentrancyCat":{"abi":[{"anonymous":false,"inputs":[{"indexed":true,"internalType":"address","name":"caretaker","type":"address"},{"indexed":false,"internalType":"string","name":"wound","type":"string"}],"name":"Meow","type":"event"},{"inputs":[{"internalType":"address","name":"","type":"address"}],"name":"balance","outputs":[{"internalType":"uint256","name":"","type":"uint256"}],"stateMutability":"view","type":"function"},{"inputs":[],"name":"caress","outputs":[],"stateMutability":"nonpayable","type":"function"},{"inputs":[],"name":"deposit","outputs":[],"stateMutability":"payable","type":"function"},{"inputs":[],"name":"remember","outputs":[{"internalType":"bool","name":"","type":"bool"}],"stateMutability":"view","type":"function"},{"inputs":[],"name":"withdraw","outputs":[],"stateMutability":"nonpayable","type":"function"}],"evm":{"bytecode":{"linkReferences":{},"object":"60808060405234601557610248908161001b8239f35b600080fdfe608080604052600436101561001357600080fd5b60003560e01c90816301288f3c146101b3575080633ccfd60b1461010c5780635ac687a8146100d9578063d0e30db0146100995763e3d670d71461005657600080fd5b34610094576020366003190112610094576004356001600160a01b038116908190036100945760005260006020526020604060002054604051908152f35b600080fd5b60003660031901126100945733600052600060205260406000208054903482018092116100c35755005b634e487b7160e01b600052601160045260246000fd5b3461009457600036600319011261009457602073bb9bc244d798123fde783fcc1c72d3bb8c1894133b1515604051908152f35b346100945760003660031901126100945733600052600060205260008080806040812054335af13d156101ae573d67ffffffffffffffff81116101985760405190601f8101601f19908116603f0116820167ffffffffffffffff811183821017610198576040528152600060203d92013e5b156100945733600052600060205260006040812055600080f35b634e487b7160e01b600052604160045260246000fd5b61017e565b346100945760003660031901126100945747156101cc57005b60208152600a6020820152697265656e7472616e637960b01b60408201527f55d68e0254b44d1d00659bd7e45544dea474c1b9d01304669332e1111dcd9d3360603392a200fea264697066735822122047035d28905bc373b1e74145d49a451b78a33da3f6c85822649380d964a74e3064736f6c634300081e0033","opcodes":"PUSH1 0x80 DUP1 PUSH1 0x40 MSTORE CALLVALUE PUSH1 0x15 JUMPI PUSH2 0x248 SWAP1 DUP2 PUSH2 0x1B DUP3 CODECOPY RETURN JUMPDEST PUSH1 0x0 DUP1 REVERT INVALID PUSH1 0x80 DUP1 PUSH1 0x40 MSTORE PUSH1 0x4 CALLDATASIZE LT ISZERO PUSH2 0x13 JUMPI PUSH1 0x0 DUP1 REVERT JUMPDEST PUSH1 0x0 CALLDATALOAD PUSH1 0xE0 SHR SWAP1 DUP2 PUSH4 0x1288F3C EQ PUSH2 0x1B3 JUMPI POP DUP1 PUSH4 0x3CCFD60B EQ PUSH2 0x10C JUMPI DUP1 PUSH4 0x5AC687A8 EQ PUSH2 0xD9 JUMPI DUP1 PUSH4 0xD0E30DB0 EQ PUSH2 0x99 JUMPI PUSH4 0xE3D670D7 EQ PUSH2 0x56 JUMPI PUSH1 0x0 DUP1 REVERT JUMPDEST CALLVALUE PUSH2 0x94 JUMPI PUSH1 0x20 CALLDATASIZE PUSH1 0x3 NOT ADD SLT PUSH2 0x94 JUMPI PUSH1 0x4 CALLDATALOAD PUSH1 0x1 PUSH1 0x1 PUSH1 0xA0 SHL SUB DUP2 AND SWAP1 DUP2 SWAP1 SUB PUSH2 0x94 JUMPI PUSH1 0x0 MSTORE PUSH1 0x0 PUSH1 0x20 MSTORE PUSH1 0x20 PUSH1 0x40 PUSH1 0x0 KECCAK256 SLOAD PUSH1 0x40 MLOAD SWAP1 DUP2 MSTORE RETURN JUMPDEST PUSH1 0x0 DUP1 REVERT JUMPDEST PUSH1 0x0 CALLDATASIZE PUSH1 0x3 NOT ADD SLT PUSH2 0x94 JUMPI CALLER PUSH1 0x0 MSTORE PUSH1 0x0 PUSH1 0x20 MSTORE PUSH1 0x40 PUSH1 0x0 KECCAK256 DUP1 SLOAD SWAP1 CALLVALUE DUP3 ADD DUP1 SWAP3 GT PUSH2 0xC3 JUMPI SSTORE STOP JUMPDEST PUSH4 0x4E487B71 PUSH1 0xE0 SHL PUSH1 0x0 MSTORE PUSH1 0x11 PUSH1 0x4 MSTORE PUSH1 0x24 PUSH1 0x0 REVERT JUMPDEST CALLVALUE PUSH2 0x94 JUMPI PUSH1 0x0 CALLDATASIZE PUSH1 0x3 NOT ADD SLT PUSH2 0x94 JUMPI PUSH1 0x20 PUSH20 0xBB9BC244D798123FDE783FCC1C72D3BB8C189413 EXTCODESIZE ISZERO ISZERO PUSH1 0x40 MLOAD SWAP1 DUP2 MSTORE RETURN JUMPDEST CALLVALUE PUSH2 0x94 JUMPI PUSH1 0x0 CALLDATASIZE PUSH1 0x3 NOT ADD SLT PUSH2 0x94 JUMPI CALLER PUSH1 0x0 MSTORE PUSH1 0x0 PUSH1 0x20 MSTORE PUSH1 0x0 DUP1 DUP1 DUP1 PUSH1 0x40 DUP2 KECCAK256 SLOAD CALLER GAS CALL RETURNDATASIZE ISZERO PUSH2 0x1AE JUMPI RETURNDATASIZE PUSH8 0xFFFFFFFFFFFFFFFF DUP2 GT PUSH2 0x198 JUMPI PUSH1 0x40 MLOAD SWAP1 PUSH1 0x1F DUP2 ADD PUSH1 0x1F NOT SWAP1 DUP2 AND PUSH1 0x3F ADD AND DUP3 ADD PUSH8 0xFFFFFFFFFFFFFFFF DUP2 GT DUP4 DUP3 LT OR PUSH2 0x198 JUMPI PUSH1 0x40 MSTORE DUP2 MSTORE PUSH1 0x0 PUSH1 0x20 RETURNDATASIZE SWAP3 ADD RETURNDATACOPY JUMPDEST ISZERO PUSH2 0x94 JUMPI CALLER PUSH1 0x0 MSTORE PUSH1 0x0 PUSH1 0x20 MSTORE PUSH1 0x0 PUSH1 0x40 DUP2 KECCAK256 SSTORE PUSH1 0x0 DUP1 RETURN JUMPDEST PUSH4 0x4E487B71 PUSH1 0xE0 SHL PUSH1 0x0 MSTORE PUSH1 0x41 PUSH1 0x4 MSTORE PUSH1 0x24 PUSH1 0x0 REVERT JUMPDEST PUSH2 0x17E JUMP JUMPDEST CALLVALUE PUSH2 0x94 JUMPI PUSH1 0x0 CALLDATASIZE PUSH1 0x3 NOT ADD SLT PUSH2 0x94 JUMPI SELFBALANCE ISZERO PUSH2 0x1CC JUMPI STOP JUMPDEST PUSH1 0x20 DUP2 MSTORE PUSH1 0xA PUSH1 0x20 DUP3 ADD MSTORE PUSH10 0x7265656E7472616E6379 PUSH1 0xB0 SHL PUSH1 0x40 DUP3 ADD MSTORE PUSH32 0x55D68E0254B44D1D00659BD7E45544DEA474C1B9D01304669332E1111DCD9D33 PUSH1 0x60 CALLER SWAP3 LOG2 STOP INVALID LOG2 PUSH5 0x6970667358 0x22 SLT KECCAK256 SELFBALANCE SUB TSTORE 0x28 SWAP1 JUMPDEST 0xC3 PUSH20 0xB1E74145D49A451B78A33DA3F6C85822649380D9 PUSH5 0xA74E306473 PUSH16 0x6C634300081E00330000000000000000 "},"methodIdentifiers":{"balance(address)":"e3d670d7","caress()":"01288f3c","deposit()":"d0e30db0","remember()":"5ac687a8","withdraw()":"3ccfd60b"}}}}}