{"contracts/BUGCATS.sol":{"BUGCATS":{"abi":[{"inputs":[{"internalType":"address","name":"_owner","type":"address"}],"stateMutability":"nonpayable","type":"constructor"},{"inputs":[{"internalType":"address","name":"owner","type":"address"}],"name":"OwnableInvalidOwner","type":"error"},{"inputs":[{"internalType":"address","name":"account","type":"address"}],"name":"OwnableUnauthorizedAccount","type":"error"},{"anonymous":false,"inputs":[{"indexed":true,"internalType":"address","name":"previousOwner","type":"address"},{"indexed":true,"internalType":"address","name":"newOwner","type":"address"}],"name":"OwnershipTransferred","type":"event"},{"inputs":[{"internalType":"uint256","name":"","type":"uint256"}],"name":"bugs","outputs":[{"internalType":"address","name":"","type":"address"}],"stateMutability":"view","type":"function"},{"inputs":[{"internalType":"address","name":"bug","type":"address"}],"name":"inject","outputs":[],"stateMutability":"nonpayable","type":"function"},{"inputs":[],"name":"owner","outputs":[{"internalType":"address","name":"","type":"address"}],"stateMutability":"view","type":"function"},{"inputs":[{"internalType":"uint256","name":"index","type":"uint256"}],"name":"remember","outputs":[{"internalType":"bool","name":"","type":"bool"}],"stateMutability":"view","type":"function"},{"inputs":[],"name":"renounceOwnership","outputs":[],"stateMutability":"nonpayable","type":"function"},{"inputs":[{"internalType":"address","name":"newOwner","type":"address"}],"name":"transferOwnership","outputs":[],"stateMutability":"nonpayable","type":"function"}],"evm":{"bytecode":{"linkReferences":{},"object":"60803460bc57601f61047a38819003918201601f19168301916001600160401b0383118484101760c15780849260209460405283398101031260bc57516001600160a01b0381169081900360bc57801560a657600080546001600160a01b031981168317825560405192916001600160a01b03909116907f8be0079c531659141344cd1fd0a4f28419497f9722a3daafe3b4186f6b6457e09080a36103a290816100d88239f35b631e4fbdf760e01b600052600060045260246000fd5b600080fd5b634e487b7160e01b600052604160045260246000fdfe6080604052600436101561001257600080fd5b60003560e01c8063404d2c271461028a578063715018a61461023157806373e1aabf146101ef5780638da5cb5b146101c65780639c139603146100f05763f2fde38b1461005e57600080fd5b346100eb5760203660031901126100eb576004356001600160a01b038116908190036100eb5761008c610343565b80156100d557600080546001600160a01b03198116831782556001600160a01b0316907f8be0079c531659141344cd1fd0a4f28419497f9722a3daafe3b4186f6b6457e09080a3005b631e4fbdf760e01b600052600060045260246000fd5b600080fd5b346100eb5760203660031901126100eb576004602061010f8235610312565b9054604051630b58d0f560e31b81529384929091839160031b1c6001600160a01b03165afa9081156101ba57600091610150575b6020826040519015158152f35b60203d6020116101b3575b601f8101601f1916820167ffffffffffffffff81118382101761019f5760209183916040528101031261019b5751801515810361019b5790506020610143565b5080fd5b634e487b7160e01b84526041600452602484fd5b503d61015b565b6040513d6000823e3d90fd5b346100eb5760003660031901126100eb576000546040516001600160a01b039091168152602090f35b346100eb5760203660031901126100eb576004356001548110156100eb57610218602091610312565b905460405160039290921b1c6001600160a01b03168152f35b346100eb5760003660031901126100eb5761024a610343565b600080546001600160a01b0319811682556001600160a01b03167f8be0079c531659141344cd1fd0a4f28419497f9722a3daafe3b4186f6b6457e08280a3005b346100eb5760203660031901126100eb576004356001600160a01b038116908190036100eb576102b8610343565b600154680100000000000000008110156102fc578060016102dc9201600155610312565b81546001600160a01b0360039290921b91821b191692901b919091179055005b634e487b7160e01b600052604160045260246000fd5b60015481101561032d57600160005260206000200190600090565b634e487b7160e01b600052603260045260246000fd5b6000546001600160a01b0316330361035757565b63118cdaa760e01b6000523360045260246000fdfea264697066735822122057bbaf70910e0367d5079341f055941633cbdee59cc42f40ed28ceca931d40e164736f6c634300081e0033","opcodes":"PUSH1 0x80 CALLVALUE PUSH1 0xBC JUMPI PUSH1 0x1F PUSH2 0x47A CODESIZE DUP2 SWAP1 SUB SWAP2 DUP3 ADD PUSH1 0x1F NOT AND DUP4 ADD SWAP2 PUSH1 0x1 PUSH1 0x1 PUSH1 0x40 SHL SUB DUP4 GT DUP5 DUP5 LT OR PUSH1 0xC1 JUMPI DUP1 DUP5 SWAP3 PUSH1 0x20 SWAP5 PUSH1 0x40 MSTORE DUP4 CODECOPY DUP2 ADD SUB SLT PUSH1 0xBC JUMPI MLOAD PUSH1 0x1 PUSH1 0x1 PUSH1 0xA0 SHL SUB DUP2 AND SWAP1 DUP2 SWAP1 SUB PUSH1 0xBC JUMPI DUP1 ISZERO PUSH1 0xA6 JUMPI PUSH1 0x0 DUP1 SLOAD PUSH1 0x1 PUSH1 0x1 PUSH1 0xA0 SHL SUB NOT DUP2 AND DUP4 OR DUP3 SSTORE PUSH1 0x40 MLOAD SWAP3 SWAP2 PUSH1 0x1 PUSH1 0x1 PUSH1 0xA0 SHL SUB SWAP1 SWAP2 AND SWAP1 PUSH32 0x8BE0079C531659141344CD1FD0A4F28419497F9722A3DAAFE3B4186F6B6457E0 SWAP1 DUP1 LOG3 PUSH2 0x3A2 SWAP1 DUP2 PUSH2 0xD8 DUP3 CODECOPY RETURN JUMPDEST PUSH4 0x1E4FBDF7 PUSH1 0xE0 SHL PUSH1 0x0 MSTORE PUSH1 0x0 PUSH1 0x4 MSTORE PUSH1 0x24 PUSH1 0x0 REVERT JUMPDEST PUSH1 0x0 DUP1 REVERT JUMPDEST PUSH4 0x4E487B71 PUSH1 0xE0 SHL PUSH1 0x0 MSTORE PUSH1 0x41 PUSH1 0x4 MSTORE PUSH1 0x24 PUSH1 0x0 REVERT INVALID PUSH1 0x80 PUSH1 0x40 MSTORE PUSH1 0x4 CALLDATASIZE LT ISZERO PUSH2 0x12 JUMPI PUSH1 0x0 DUP1 REVERT JUMPDEST PUSH1 0x0 CALLDATALOAD PUSH1 0xE0 SHR DUP1 PUSH4 0x404D2C27 EQ PUSH2 0x28A JUMPI DUP1 PUSH4 0x715018A6 EQ PUSH2 0x231 JUMPI DUP1 PUSH4 0x73E1AABF EQ PUSH2 0x1EF JUMPI DUP1 PUSH4 0x8DA5CB5B EQ PUSH2 0x1C6 JUMPI DUP1 PUSH4 0x9C139603 EQ PUSH2 0xF0 JUMPI PUSH4 0xF2FDE38B EQ PUSH2 0x5E JUMPI PUSH1 0x0 DUP1 REVERT JUMPDEST CALLVALUE PUSH2 0xEB JUMPI PUSH1 0x20 CALLDATASIZE PUSH1 0x3 NOT ADD SLT PUSH2 0xEB JUMPI PUSH1 0x4 CALLDATALOAD PUSH1 0x1 PUSH1 0x1 PUSH1 0xA0 SHL SUB DUP2 AND SWAP1 DUP2 SWAP1 SUB PUSH2 0xEB JUMPI PUSH2 0x8C PUSH2 0x343 JUMP JUMPDEST DUP1 ISZERO PUSH2 0xD5 JUMPI PUSH1 0x0 DUP1 SLOAD PUSH1 0x1 PUSH1 0x1 PUSH1 0xA0 SHL SUB NOT DUP2 AND DUP4 OR DUP3 SSTORE PUSH1 0x1 PUSH1 0x1 PUSH1 0xA0 SHL SUB AND SWAP1 PUSH32 0x8BE0079C531659141344CD1FD0A4F28419497F9722A3DAAFE3B4186F6B6457E0 SWAP1 DUP1 LOG3 STOP JUMPDEST PUSH4 0x1E4FBDF7 PUSH1 0xE0 SHL PUSH1 0x0 MSTORE PUSH1 0x0 PUSH1 0x4 MSTORE PUSH1 0x24 PUSH1 0x0 REVERT JUMPDEST PUSH1 0x0 DUP1 REVERT JUMPDEST CALLVALUE PUSH2 0xEB JUMPI PUSH1 0x20 CALLDATASIZE PUSH1 0x3 NOT ADD SLT PUSH2 0xEB JUMPI PUSH1 0x4 PUSH1 0x20 PUSH2 0x10F DUP3 CALLDATALOAD PUSH2 0x312 JUMP JUMPDEST SWAP1 SLOAD PUSH1 0x40 MLOAD PUSH4 0xB58D0F5 PUSH1 0xE3 SHL DUP2 MSTORE SWAP4 DUP5 SWAP3 SWAP1 SWAP2 DUP4 SWAP2 PUSH1 0x3 SHL SHR PUSH1 0x1 PUSH1 0x1 PUSH1 0xA0 SHL SUB AND GAS STATICCALL SWAP1 DUP2 ISZERO PUSH2 0x1BA JUMPI PUSH1 0x0 SWAP2 PUSH2 0x150 JUMPI JUMPDEST PUSH1 0x20 DUP3 PUSH1 0x40 MLOAD SWAP1 ISZERO ISZERO DUP2 MSTORE RETURN JUMPDEST PUSH1 0x20 RETURNDATASIZE PUSH1 0x20 GT PUSH2 0x1B3 JUMPI JUMPDEST PUSH1 0x1F DUP2 ADD PUSH1 0x1F NOT AND DUP3 ADD PUSH8 0xFFFFFFFFFFFFFFFF DUP2 GT DUP4 DUP3 LT OR PUSH2 0x19F JUMPI PUSH1 0x20 SWAP2 DUP4 SWAP2 PUSH1 0x40 MSTORE DUP2 ADD SUB SLT PUSH2 0x19B JUMPI MLOAD DUP1 ISZERO ISZERO DUP2 SUB PUSH2 0x19B JUMPI SWAP1 POP PUSH1 0x20 PUSH2 0x143 JUMP JUMPDEST POP DUP1 REVERT JUMPDEST PUSH4 0x4E487B71 PUSH1 0xE0 SHL DUP5 MSTORE PUSH1 0x41 PUSH1 0x4 MSTORE PUSH1 0x24 DUP5 REVERT JUMPDEST POP RETURNDATASIZE PUSH2 0x15B JUMP JUMPDEST PUSH1 0x40 MLOAD RETURNDATASIZE PUSH1 0x0 DUP3 RETURNDATACOPY RETURNDATASIZE SWAP1 REVERT JUMPDEST CALLVALUE PUSH2 0xEB JUMPI PUSH1 0x0 CALLDATASIZE PUSH1 0x3 NOT ADD SLT PUSH2 0xEB JUMPI PUSH1 0x0 SLOAD PUSH1 0x40 MLOAD PUSH1 0x1 PUSH1 0x1 PUSH1 0xA0 SHL SUB SWAP1 SWAP2 AND DUP2 MSTORE PUSH1 0x20 SWAP1 RETURN JUMPDEST CALLVALUE PUSH2 0xEB JUMPI PUSH1 0x20 CALLDATASIZE PUSH1 0x3 NOT ADD SLT PUSH2 0xEB JUMPI PUSH1 0x4 CALLDATALOAD PUSH1 0x1 SLOAD DUP2 LT ISZERO PUSH2 0xEB JUMPI PUSH2 0x218 PUSH1 0x20 SWAP2 PUSH2 0x312 JUMP JUMPDEST SWAP1 SLOAD PUSH1 0x40 MLOAD PUSH1 0x3 SWAP3 SWAP1 SWAP3 SHL SHR PUSH1 0x1 PUSH1 0x1 PUSH1 0xA0 SHL SUB AND DUP2 MSTORE RETURN JUMPDEST CALLVALUE PUSH2 0xEB JUMPI PUSH1 0x0 CALLDATASIZE PUSH1 0x3 NOT ADD SLT PUSH2 0xEB JUMPI PUSH2 0x24A PUSH2 0x343 JUMP JUMPDEST PUSH1 0x0 DUP1 SLOAD PUSH1 0x1 PUSH1 0x1 PUSH1 0xA0 SHL SUB NOT DUP2 AND DUP3 SSTORE PUSH1 0x1 PUSH1 0x1 PUSH1 0xA0 SHL SUB AND PUSH32 0x8BE0079C531659141344CD1FD0A4F28419497F9722A3DAAFE3B4186F6B6457E0 DUP3 DUP1 LOG3 STOP JUMPDEST CALLVALUE PUSH2 0xEB JUMPI PUSH1 0x20 CALLDATASIZE PUSH1 0x3 NOT ADD SLT PUSH2 0xEB JUMPI PUSH1 0x4 CALLDATALOAD PUSH1 0x1 PUSH1 0x1 PUSH1 0xA0 SHL SUB DUP2 AND SWAP1 DUP2 SWAP1 SUB PUSH2 0xEB JUMPI PUSH2 0x2B8 PUSH2 0x343 JUMP JUMPDEST PUSH1 0x1 SLOAD PUSH9 0x10000000000000000 DUP2 LT ISZERO PUSH2 0x2FC JUMPI DUP1 PUSH1 0x1 PUSH2 0x2DC SWAP3 ADD PUSH1 0x1 SSTORE PUSH2 0x312 JUMP JUMPDEST DUP2 SLOAD PUSH1 0x1 PUSH1 0x1 PUSH1 0xA0 SHL SUB PUSH1 0x3 SWAP3 SWAP1 SWAP3 SHL SWAP2 DUP3 SHL NOT AND SWAP3 SWAP1 SHL SWAP2 SWAP1 SWAP2 OR SWAP1 SSTORE STOP JUMPDEST PUSH4 0x4E487B71 PUSH1 0xE0 SHL PUSH1 0x0 MSTORE PUSH1 0x41 PUSH1 0x4 MSTORE PUSH1 0x24 PUSH1 0x0 REVERT JUMPDEST PUSH1 0x1 SLOAD DUP2 LT ISZERO PUSH2 0x32D JUMPI PUSH1 0x1 PUSH1 0x0 MSTORE PUSH1 0x20 PUSH1 0x0 KECCAK256 ADD SWAP1 PUSH1 0x0 SWAP1 JUMP JUMPDEST PUSH4 0x4E487B71 PUSH1 0xE0 SHL PUSH1 0x0 MSTORE PUSH1 0x32 PUSH1 0x4 MSTORE PUSH1 0x24 PUSH1 0x0 REVERT JUMPDEST PUSH1 0x0 SLOAD PUSH1 0x1 PUSH1 0x1 PUSH1 0xA0 SHL SUB AND CALLER SUB PUSH2 0x357 JUMPI JUMP JUMPDEST PUSH4 0x118CDAA7 PUSH1 0xE0 SHL PUSH1 0x0 MSTORE CALLER PUSH1 0x4 MSTORE PUSH1 0x24 PUSH1 0x0 REVERT INVALID LOG2 PUSH5 0x6970667358 0x22 SLT KECCAK256 JUMPI 0xBB 0xAF PUSH17 0x910E0367D5079341F055941633CBDEE59C 0xC4 0x2F BLOCKHASH 0xED 0x28 0xCE 0xCA SWAP4 SAR BLOCKHASH RJUMPI 0x6473 PUSH16 0x6C634300081E00330000000000000000 "},"methodIdentifiers":{"bugs(uint256)":"73e1aabf","inject(address)":"404d2c27","owner()":"8da5cb5b","remember(uint256)":"9c139603","renounceOwnership()":"715018a6","transferOwnership(address)":"f2fde38b"}}}}}