{
  "_format": "hh-sol-artifact-1",
  "contractName": "UnprotectedCat",
  "sourceName": "contracts/cats/UnprotectedCat.sol",
  "abi": [
    {
      "constant": false,
      "inputs": [],
      "name": "caress",
      "outputs": [],
      "payable": false,
      "stateMutability": "nonpayable",
      "type": "function"
    },
    {
      "constant": true,
      "inputs": [],
      "name": "initialized",
      "outputs": [
        {
          "name": "",
          "type": "bool"
        }
      ],
      "payable": false,
      "stateMutability": "view",
      "type": "function"
    },
    {
      "constant": false,
      "inputs": [
        {
          "name": "o",
          "type": "address"
        }
      ],
      "name": "init",
      "outputs": [],
      "payable": false,
      "stateMutability": "nonpayable",
      "type": "function"
    },
    {
      "constant": false,
      "inputs": [],
      "name": "kill",
      "outputs": [],
      "payable": false,
      "stateMutability": "nonpayable",
      "type": "function"
    },
    {
      "constant": true,
      "inputs": [],
      "name": "remember",
      "outputs": [
        {
          "name": "",
          "type": "bool"
        }
      ],
      "payable": false,
      "stateMutability": "view",
      "type": "function"
    },
    {
      "constant": true,
      "inputs": [],
      "name": "owner",
      "outputs": [
        {
          "name": "",
          "type": "address"
        }
      ],
      "payable": false,
      "stateMutability": "view",
      "type": "function"
    },
    {
      "anonymous": false,
      "inputs": [
        {
          "indexed": true,
          "name": "caretaker",
          "type": "address"
        },
        {
          "indexed": false,
          "name": "wound",
          "type": "string"
        }
      ],
      "name": "Meow",
      "type": "event"
    }
  ],
  "bytecode": "0x608060405234801561001057600080fd5b506102c9806100206000396000f3006080604052600436106100775763ffffffff7c010000000000000000000000000000000000000000000000000000000060003504166301288f3c811461007c578063158ef93e1461009357806319ab453c146100bc57806341c0e1b5146100dd5780635ac687a8146100f25780638da5cb5b14610107575b600080fd5b34801561008857600080fd5b50610091610138565b005b34801561009f57600080fd5b506100a86101b1565b604080519115158252519081900360200190f35b3480156100c857600080fd5b50610091600160a060020a03600435166101d2565b3480156100e957600080fd5b50610091610231565b3480156100fe57600080fd5b506100a8610256565b34801561011357600080fd5b5061011c61028e565b60408051600160a060020a039092168252519081900360200190f35b600054600160a060020a03163314156101af57604080516020808252600b908201527f756e70726f74656374656400000000000000000000000000000000000000000081830152905133917f55d68e0254b44d1d00659bd7e45544dea474c1b9d01304669332e1111dcd9d33919081900360600190a25b565b60005474010000000000000000000000000000000000000000900460ff1681565b6000805474ff000000000000000000000000000000000000000019600160a060020a0390931673ffffffffffffffffffffffffffffffffffffffff19909116179190911674010000000000000000000000000000000000000000179055565b600054600160a060020a0316331461024857600080fd5b600054600160a060020a0316ff5b600073863df6bfa4469f3ead0be8f9f2aae51c91a907b4803b801580156102875750600082600160a060020a031631115b9250505090565b600054600160a060020a0316815600a165627a7a7230582050b3937cc503e3cb6dc0d29bacda8187c17e76c314d0d37cb51ce03f80b704bc0029",
  "linkReferences": {},
  "deployedLinkReferences": {}
}