{
  "_format": "hh-sol-artifact-1",
  "contractName": "Caretaker",
  "sourceName": "contracts/Caretaker.sol",
  "abi": [
    {
      "inputs": [
        {
          "internalType": "address",
          "name": "cat",
          "type": "address"
        }
      ],
      "name": "claim",
      "outputs": [],
      "stateMutability": "nonpayable",
      "type": "function"
    },
    {
      "inputs": [
        {
          "internalType": "address",
          "name": "cat",
          "type": "address"
        }
      ],
      "name": "overflow",
      "outputs": [],
      "stateMutability": "nonpayable",
      "type": "function"
    },
    {
      "inputs": [
        {
          "internalType": "address",
          "name": "cat",
          "type": "address"
        }
      ],
      "name": "rename",
      "outputs": [],
      "stateMutability": "nonpayable",
      "type": "function"
    }
  ],
  "bytecode": "0x60808060405234601557610495908161001b8239f35b600080fdfe608080604052600436101561001357600080fd5b600090813560e01c9081631e83409a1461031857508063a3a183c1146101745763da2cac4b1461004257600080fd5b346100dc5760203660031901126100dc57806004356001600160a01b038116908190036100ea57604051638da5cb5b60e01b8152602081600481855afa90811561013a578391610145575b50306001600160a01b03909116036100ed575b803b156100ea57818091600460405180948193624a23cf60e21b83525af180156100df576100cb5750f35b816100d591610403565b6100dc5780f35b80fd5b6040513d84823e3d90fd5b50fd5b803b156100ea5760405163b35cd4fb60e01b8152306004820152828160248183865af190811561013a578391610125575b50506100a0565b8161012f91610403565b6100ea57813861011e565b6040513d85823e3d90fd5b610167915060203d60201161016d575b61015f8183610403565b81019061043b565b3861008d565b503d610155565b50346100dc5760203660031901126100dc576004356001600160a01b03811691908290036100dc5760405163e3d670d760e01b8152306004820152602081602481865afa9081156100df5782916102e2575b50156101fa575b8181923b156100ea57818091600460405180948193624a23cf60e21b83525af180156100df576100cb5750f35b60405191610209606084610403565b60028352602083019260403685378051156102ce573084528051600110156102ce5761dead6040820152813b156102ca57604051906320fc4bfb60e21b825260448201906040600484015251809152606482019490845b8181106102ab575050508281808296600160ff1b6024830152038183865af190811561013a578391610296575b505091506101cd565b816102a091610403565b6100ea57813861028d565b82516001600160a01b0316875260209687019690920191600101610260565b8280fd5b634e487b7160e01b83526032600452602483fd5b90506020813d602011610310575b816102fd60209383610403565b8101031261030c5751386101c6565b5080fd5b3d91506102f0565b82346100dc5760203660031901126100dc576004356001600160a01b038116929083900361030c57638da5cb5b60e01b8152602081600481865afa9081156100df5782916103e4575b50306001600160a01b03909116036103a0578181923b156100ea57818091600460405180948193624a23cf60e21b83525af180156100df576100cb5750f35b813b156100dc5760405163066ad14f60e21b8152306004820152818160248183875af180156100df576103d4575b506101cd565b816103de91610403565b826103ce565b6103fd915060203d60201161016d5761015f8183610403565b83610361565b90601f8019910116810190811067ffffffffffffffff82111761042557604052565b634e487b7160e01b600052604160045260246000fd5b9081602091031261045a57516001600160a01b038116810361045a5790565b600080fdfea2646970667358221220e54a82e52c51972a6ef072923ddedbab00b12e481cad5b06463cb9e2a134e56a64736f6c634300081e0033",
  "linkReferences": {},
  "deployedLinkReferences": {}
}